interactions:
- request:
    body: '{"method": "getblockhash", "params": [555], "jsonrpc": "2.0", "id": "curltest"}'
    headers: {}
    method: POST
    uri: https://dry-compatible-cloud.btc-testnet.quiknode.pro/268755801856724a0c520053c0bc3b0a7b1a2d3e/
  response:
    body:
      string: '{"result":"000000006fbf1031517026c7c04d4f81ee9aa52d2f40d87b81f6c881861d14ae","error":null,"id":"curltest"}

        '
    headers:
      Access-Control-Allow-Credentials:
      - 'true'
      Access-Control-Allow-Headers:
      - Content-Type,Authorization,User-Agent
      Access-Control-Allow-Methods:
      - GET, POST, OPTIONS
      Access-Control-Allow-Origin:
      - ''
      Content-Length:
      - '107'
      Content-Type:
      - application/json
      Date:
      - Sat, 04 May 2024 17:08:30 GMT
      Vary:
      - Accept-Encoding
      X-Host-Id:
      - f1b546936d23e3b5-a12d19355fbb795
      X-Node-Id:
      - bitcoin_btc-testnet_iad
    status:
      code: 200
      message: OK
- request:
    body: '{"method": "getblock", "params": ["000000006fbf1031517026c7c04d4f81ee9aa52d2f40d87b81f6c881861d14ae",
      2], "jsonrpc": "2.0", "id": "curltest"}'
    headers: {}
    method: POST
    uri: https://dry-compatible-cloud.btc-testnet.quiknode.pro/268755801856724a0c520053c0bc3b0a7b1a2d3e/
  response:
    body:
      string: '{"result":{"hash":"000000006fbf1031517026c7c04d4f81ee9aa52d2f40d87b81f6c881861d14ae","confirmations":2810846,"height":555,"version":1,"versionHex":"00000001","merkleroot":"070a808197d97c8982587f75fef6d531282863a110ad5e8b42cdec8ddb6dc4e0","time":1337966070,"mediantime":1337966069,"nonce":3496667398,"bits":"1d00ffff","difficulty":1,"chainwork":"0000000000000000000000000000000000000000000000000000022c022c022c","nTx":1,"previousblockhash":"000000005b6abb5f09dafd95f1fde2774560e8f5ed1dde231e3cd864ebac0501","nextblockhash":"000000007d9bc9b2c9935b984673226effbae5eb045e6babdaf0adbc20d09481","strippedsize":207,"size":207,"weight":828,"tx":[{"txid":"070a808197d97c8982587f75fef6d531282863a110ad5e8b42cdec8ddb6dc4e0","hash":"070a808197d97c8982587f75fef6d531282863a110ad5e8b42cdec8ddb6dc4e0","version":1,"size":126,"vsize":126,"weight":504,"locktime":0,"vin":[{"coinbase":"04f6bdbf4f0103172f503253482f49636549726f6e2d51432d6d696e65722f","sequence":4294967295}],"vout":[{"value":50.00000000,"n":0,"scriptPubKey":{"asm":"025d43dca910164b396d8f3cd9f75697d455016aa77191c86f429e0c58e22af12b
        OP_CHECKSIG","desc":"pk(025d43dca910164b396d8f3cd9f75697d455016aa77191c86f429e0c58e22af12b)#dxpkevvx","hex":"21025d43dca910164b396d8f3cd9f75697d455016aa77191c86f429e0c58e22af12bac","type":"pubkey"}}],"hex":"01000000010000000000000000000000000000000000000000000000000000000000000000ffffffff1f04f6bdbf4f0103172f503253482f49636549726f6e2d51432d6d696e65722fffffffff0100f2052a010000002321025d43dca910164b396d8f3cd9f75697d455016aa77191c86f429e0c58e22af12bac00000000"}]},"error":null,"id":"curltest"}

        '
    headers:
      Access-Control-Allow-Credentials:
      - 'true'
      Access-Control-Allow-Headers:
      - Content-Type,Authorization,User-Agent
      Access-Control-Allow-Methods:
      - GET, POST, OPTIONS
      Access-Control-Allow-Origin:
      - ''
      Content-Length:
      - '1575'
      Content-Type:
      - application/json
      Date:
      - Sat, 04 May 2024 17:08:30 GMT
      Vary:
      - Accept-Encoding
      X-Host-Id:
      - f1b546936d23e3b5-d46e6ad25adfe563
      X-Node-Id:
      - bitcoin_btc-testnet_iad
    status:
      code: 200
      message: OK
- request:
    body: '{"method": "getblockhash", "params": [556], "jsonrpc": "2.0", "id": "curltest"}'
    headers: {}
    method: POST
    uri: https://dry-compatible-cloud.btc-testnet.quiknode.pro/268755801856724a0c520053c0bc3b0a7b1a2d3e/
  response:
    body:
      string: '{"result":"000000007d9bc9b2c9935b984673226effbae5eb045e6babdaf0adbc20d09481","error":null,"id":"curltest"}

        '
    headers:
      Access-Control-Allow-Credentials:
      - 'true'
      Access-Control-Allow-Headers:
      - Content-Type,Authorization,User-Agent
      Access-Control-Allow-Methods:
      - GET, POST, OPTIONS
      Access-Control-Allow-Origin:
      - ''
      Content-Length:
      - '107'
      Content-Type:
      - application/json
      Date:
      - Sat, 04 May 2024 17:08:32 GMT
      Vary:
      - Accept-Encoding
      X-Host-Id:
      - f1b546936d23e3b5-d46e6ad25adfe563
      X-Node-Id:
      - bitcoin_btc-testnet_iad
    status:
      code: 200
      message: OK
- request:
    body: '{"method": "getblock", "params": ["000000007d9bc9b2c9935b984673226effbae5eb045e6babdaf0adbc20d09481",
      2], "jsonrpc": "2.0", "id": "curltest"}'
    headers: {}
    method: POST
    uri: https://dry-compatible-cloud.btc-testnet.quiknode.pro/268755801856724a0c520053c0bc3b0a7b1a2d3e/
  response:
    body:
      string: '{"result":{"hash":"000000007d9bc9b2c9935b984673226effbae5eb045e6babdaf0adbc20d09481","confirmations":2810845,"height":556,"version":1,"versionHex":"00000001","merkleroot":"c852040a873a8f3c1ee69fda40dcf32a118978a923f62176272e840fc042de54","time":1337966070,"mediantime":1337966069,"nonce":230368271,"bits":"1d00ffff","difficulty":1,"chainwork":"0000000000000000000000000000000000000000000000000000022d022d022d","nTx":1,"previousblockhash":"000000006fbf1031517026c7c04d4f81ee9aa52d2f40d87b81f6c881861d14ae","nextblockhash":"00000000a2a6ce067534f2454c4bfbc01b5880f928a48ba22d7406a490645a31","strippedsize":207,"size":207,"weight":828,"tx":[{"txid":"c852040a873a8f3c1ee69fda40dcf32a118978a923f62176272e840fc042de54","hash":"c852040a873a8f3c1ee69fda40dcf32a118978a923f62176272e840fc042de54","version":1,"size":126,"vsize":126,"weight":504,"locktime":0,"vin":[{"coinbase":"04f6bdbf4f0125172f503253482f49636549726f6e2d51432d6d696e65722f","sequence":4294967295}],"vout":[{"value":50.00000000,"n":0,"scriptPubKey":{"asm":"02473b17997547c72bc7cfacfbcf3ee03792880206bed89a0dd8930aba2a8d4cad
        OP_CHECKSIG","desc":"pk(02473b17997547c72bc7cfacfbcf3ee03792880206bed89a0dd8930aba2a8d4cad)#t4hj9ya7","hex":"2102473b17997547c72bc7cfacfbcf3ee03792880206bed89a0dd8930aba2a8d4cadac","type":"pubkey"}}],"hex":"01000000010000000000000000000000000000000000000000000000000000000000000000ffffffff1f04f6bdbf4f0125172f503253482f49636549726f6e2d51432d6d696e65722fffffffff0100f2052a01000000232102473b17997547c72bc7cfacfbcf3ee03792880206bed89a0dd8930aba2a8d4cadac00000000"}]},"error":null,"id":"curltest"}

        '
    headers:
      Access-Control-Allow-Credentials:
      - 'true'
      Access-Control-Allow-Headers:
      - Content-Type,Authorization,User-Agent
      Access-Control-Allow-Methods:
      - GET, POST, OPTIONS
      Access-Control-Allow-Origin:
      - ''
      Content-Length:
      - '1574'
      Content-Type:
      - application/json
      Date:
      - Sat, 04 May 2024 17:08:32 GMT
      Vary:
      - Accept-Encoding
      X-Host-Id:
      - f1b546936d23e3b5-a12d19355fbb795
      X-Node-Id:
      - bitcoin_btc-testnet_iad
    status:
      code: 200
      message: OK
- request:
    body: '{"method": "getblockhash", "params": [557], "jsonrpc": "2.0", "id": "curltest"}'
    headers: {}
    method: POST
    uri: https://dry-compatible-cloud.btc-testnet.quiknode.pro/268755801856724a0c520053c0bc3b0a7b1a2d3e/
  response:
    body:
      string: '{"result":"00000000a2a6ce067534f2454c4bfbc01b5880f928a48ba22d7406a490645a31","error":null,"id":"curltest"}

        '
    headers:
      Access-Control-Allow-Credentials:
      - 'true'
      Access-Control-Allow-Headers:
      - Content-Type,Authorization,User-Agent
      Access-Control-Allow-Methods:
      - GET, POST, OPTIONS
      Access-Control-Allow-Origin:
      - ''
      Content-Length:
      - '107'
      Content-Type:
      - application/json
      Date:
      - Sat, 04 May 2024 17:09:09 GMT
      Vary:
      - Accept-Encoding
      X-Host-Id:
      - f1b546936d23e3b5-d46e6ad25adfe563
      X-Node-Id:
      - bitcoin_btc-testnet_iad
    status:
      code: 200
      message: OK
- request:
    body: '{"method": "getblock", "params": ["00000000a2a6ce067534f2454c4bfbc01b5880f928a48ba22d7406a490645a31",
      2], "jsonrpc": "2.0", "id": "curltest"}'
    headers: {}
    method: POST
    uri: https://dry-compatible-cloud.btc-testnet.quiknode.pro/268755801856724a0c520053c0bc3b0a7b1a2d3e/
  response:
    body:
      string: '{"result":{"hash":"00000000a2a6ce067534f2454c4bfbc01b5880f928a48ba22d7406a490645a31","confirmations":2810844,"height":557,"version":1,"versionHex":"00000001","merkleroot":"c870dcb82bb047cb0294a835ed84deb1088f548b9d7486f90368840f8b7b1197","time":1337966070,"mediantime":1337966070,"nonce":1586329869,"bits":"1d00ffff","difficulty":1,"chainwork":"0000000000000000000000000000000000000000000000000000022e022e022e","nTx":1,"previousblockhash":"000000007d9bc9b2c9935b984673226effbae5eb045e6babdaf0adbc20d09481","nextblockhash":"000000004d5af5f7b0c286e09e9c1f19f5ab00d7ada978095d7f0fb194e49a34","strippedsize":207,"size":207,"weight":828,"tx":[{"txid":"c870dcb82bb047cb0294a835ed84deb1088f548b9d7486f90368840f8b7b1197","hash":"c870dcb82bb047cb0294a835ed84deb1088f548b9d7486f90368840f8b7b1197","version":1,"size":126,"vsize":126,"weight":504,"locktime":0,"vin":[{"coinbase":"04f6bdbf4f0108172f503253482f49636549726f6e2d51432d6d696e65722f","sequence":4294967295}],"vout":[{"value":50.00000000,"n":0,"scriptPubKey":{"asm":"03cde84673b5b0b52018d14777fe716cabb359a91401778e88a2c5649ca6244fe7
        OP_CHECKSIG","desc":"pk(03cde84673b5b0b52018d14777fe716cabb359a91401778e88a2c5649ca6244fe7)#dveh6vx3","hex":"2103cde84673b5b0b52018d14777fe716cabb359a91401778e88a2c5649ca6244fe7ac","type":"pubkey"}}],"hex":"01000000010000000000000000000000000000000000000000000000000000000000000000ffffffff1f04f6bdbf4f0108172f503253482f49636549726f6e2d51432d6d696e65722fffffffff0100f2052a01000000232103cde84673b5b0b52018d14777fe716cabb359a91401778e88a2c5649ca6244fe7ac00000000"}]},"error":null,"id":"curltest"}

        '
    headers:
      Access-Control-Allow-Credentials:
      - 'true'
      Access-Control-Allow-Headers:
      - Content-Type,Authorization,User-Agent
      Access-Control-Allow-Methods:
      - GET, POST, OPTIONS
      Access-Control-Allow-Origin:
      - ''
      Content-Length:
      - '1575'
      Content-Type:
      - application/json
      Date:
      - Sat, 04 May 2024 17:09:09 GMT
      Vary:
      - Accept-Encoding
      X-Host-Id:
      - f1b546936d23e3b5-d46e6ad25adfe563
      X-Node-Id:
      - bitcoin_btc-testnet_iad
    status:
      code: 200
      message: OK
version: 1
