interactions:
- request:
    body: '{"method": "getblockcount", "params": [], "jsonrpc": "2.0", "id": "curltest"}'
    headers: {}
    method: POST
    uri: https://api.tatum.io/v3/blockchain/node/litecoin-core-testnet/t-66b98fa76a2e46001c79a063-6be61af199b34129a4797ed2/
  response:
    body:
      string: '{"result":3275881,"error":null,"id":"curltest"}'
    headers:
      Access-Control-Allow-Origin:
      - '*'
      CF-Cache-Status:
      - DYNAMIC
      CF-RAY:
      - 887f3f33ebc279bd-LHR
      Connection:
      - keep-alive
      Content-Length:
      - '47'
      Content-Type:
      - application/json; charset=utf-8
      Date:
      - Wed, 22 May 2024 19:35:00 GMT
      Etag:
      - W/"2f-Mex06FydWLd57h5fnKbgHAWLb00"
      NEL:
      - '{"success_fraction":0,"report_to":"cf-nel","max_age":604800}'
      Report-To:
      - '{"endpoints":[{"url":"https:\/\/a.nel.cloudflare.com\/report\/v4?s=yjh1a1hNN4AWyt8VZJHrTe3t6oC1OEo%2F5dFxS5QIXk8FS14YuH9t1M6gRGqKgLL7mXewrHkt7O2AZnvzXv3QSG22AILlH35%2BJbmSofokng8UyFNFwTVokrHjq33VPgA%3D"}],"group":"cf-nel","max_age":604800}'
      Server:
      - cloudflare
      Via:
      - 1.1 google
      alt-svc:
      - h3=":443"; ma=86400
      content-security-policy:
      - 'default-src ''self'';base-uri ''self'';block-all-mixed-content;font-src ''self''
        https: data:;frame-ancestors ''self'';img-src ''self'' data:;object-src ''none'';script-src
        ''self'';script-src-attr ''none'';style-src ''self'' https: ''unsafe-inline'';upgrade-insecure-requests'
      expect-ct:
      - max-age=0
      referrer-policy:
      - no-referrer
      strict-transport-security:
      - max-age=15552000; includeSubDomains
      x-content-type-options:
      - nosniff
      x-dns-prefetch-control:
      - 'off'
      x-download-options:
      - noopen
      x-frame-options:
      - SAMEORIGIN
      x-lgroup:
      - v3:::4
      x-permitted-cross-domain-policies:
      - none
      x-ratelimit-persec:
      - '3'
      x-xss-protection:
      - '0'
    status:
      code: 200
      message: OK
- request:
    body: '{"method": "getblockcount", "params": [], "jsonrpc": "2.0", "id": "curltest"}'
    headers: {}
    method: POST
    uri: https://api.tatum.io/v3/blockchain/node/litecoin-core-testnet/t-66b98fa76a2e46001c79a063-6be61af199b34129a4797ed2/
  response:
    body:
      string: '{"result":3275881,"error":null,"id":"curltest"}'
    headers:
      Access-Control-Allow-Origin:
      - '*'
      CF-Cache-Status:
      - DYNAMIC
      CF-RAY:
      - 887f3f351d369451-LHR
      Connection:
      - keep-alive
      Content-Length:
      - '47'
      Content-Type:
      - application/json; charset=utf-8
      Date:
      - Wed, 22 May 2024 19:35:00 GMT
      Etag:
      - W/"2f-Mex06FydWLd57h5fnKbgHAWLb00"
      NEL:
      - '{"success_fraction":0,"report_to":"cf-nel","max_age":604800}'
      Report-To:
      - '{"endpoints":[{"url":"https:\/\/a.nel.cloudflare.com\/report\/v4?s=lRI%2FbKACeiEzps7cMJq9S%2Fcs2uh6HIfZR7%2B5X5uGi8kZdReiyd6vpWyYFOQwBaW3h1Kbs89Xuu%2FTwfezs3OENbhTCT2rAsjdV6Uxd8pA1OtZ8FdPS4MVmOafssBPSd4%3D"}],"group":"cf-nel","max_age":604800}'
      Server:
      - cloudflare
      Via:
      - 1.1 google
      alt-svc:
      - h3=":443"; ma=86400
      content-security-policy:
      - 'default-src ''self'';base-uri ''self'';block-all-mixed-content;font-src ''self''
        https: data:;frame-ancestors ''self'';img-src ''self'' data:;object-src ''none'';script-src
        ''self'';script-src-attr ''none'';style-src ''self'' https: ''unsafe-inline'';upgrade-insecure-requests'
      expect-ct:
      - max-age=0
      referrer-policy:
      - no-referrer
      strict-transport-security:
      - max-age=15552000; includeSubDomains
      x-content-type-options:
      - nosniff
      x-dns-prefetch-control:
      - 'off'
      x-download-options:
      - noopen
      x-frame-options:
      - SAMEORIGIN
      x-lgroup:
      - v3:::4
      x-permitted-cross-domain-policies:
      - none
      x-ratelimit-persec:
      - '3'
      x-xss-protection:
      - '0'
    status:
      code: 200
      message: OK
- request:
    body: '{"method": "getblockhash", "params": [3247853], "jsonrpc": "2.0", "id":
      "curltest"}'
    headers: {}
    method: POST
    uri: https://api.tatum.io/v3/blockchain/node/litecoin-core-testnet/t-66b98fa76a2e46001c79a063-6be61af199b34129a4797ed2/
  response:
    body:
      string: '{"result":"b76c047e07af580555082792b2007dc969a6036391cd5aba915ec3c73755b80b","error":null,"id":"curltest"}'
    headers:
      Access-Control-Allow-Origin:
      - '*'
      CF-Cache-Status:
      - DYNAMIC
      CF-RAY:
      - 887f3f35fc5963f8-LHR
      Connection:
      - keep-alive
      Content-Encoding:
      - gzip
      Content-Type:
      - application/json; charset=utf-8
      Date:
      - Wed, 22 May 2024 19:35:00 GMT
      Etag:
      - W/"6a-LkLLyOVV1TG/alYlITH3LlU0UyM"
      NEL:
      - '{"success_fraction":0,"report_to":"cf-nel","max_age":604800}'
      Report-To:
      - '{"endpoints":[{"url":"https:\/\/a.nel.cloudflare.com\/report\/v4?s=SfsAHjUYCj6Pj9nms81Iu7Er%2FNBZvlvm%2FxL8k%2FMeSk22BlSSbZMk8pUIInUCa7HlkQKwnydfpbaouuDQc6A%2FacgFEGbmYbWkMAZ%2BmG38Nsk41ocXiNVp5G3JPC8ok0k%3D"}],"group":"cf-nel","max_age":604800}'
      Server:
      - cloudflare
      Transfer-Encoding:
      - chunked
      Via:
      - 1.1 google
      alt-svc:
      - h3=":443"; ma=86400
      content-security-policy:
      - 'default-src ''self'';base-uri ''self'';block-all-mixed-content;font-src ''self''
        https: data:;frame-ancestors ''self'';img-src ''self'' data:;object-src ''none'';script-src
        ''self'';script-src-attr ''none'';style-src ''self'' https: ''unsafe-inline'';upgrade-insecure-requests'
      expect-ct:
      - max-age=0
      referrer-policy:
      - no-referrer
      strict-transport-security:
      - max-age=15552000; includeSubDomains
      x-content-type-options:
      - nosniff
      x-dns-prefetch-control:
      - 'off'
      x-download-options:
      - noopen
      x-frame-options:
      - SAMEORIGIN
      x-lgroup:
      - v3:::4
      x-permitted-cross-domain-policies:
      - none
      x-ratelimit-persec:
      - '3'
      x-xss-protection:
      - '0'
    status:
      code: 200
      message: OK
- request:
    body: '{"method": "getblock", "params": ["b76c047e07af580555082792b2007dc969a6036391cd5aba915ec3c73755b80b",
      2], "jsonrpc": "2.0", "id": "curltest"}'
    headers: {}
    method: POST
    uri: https://api.tatum.io/v3/blockchain/node/litecoin-core-testnet/t-66b98fa76a2e46001c79a063-6be61af199b34129a4797ed2/
  response:
    body:
      string: '{"result":{"hash":"b76c047e07af580555082792b2007dc969a6036391cd5aba915ec3c73755b80b","confirmations":28029,"strippedsize":464,"size":890,"weight":2108,"height":3247853,"version":536870912,"versionHex":"20000000","merkleroot":"983577cb9a5f6d9e0cf17c04a5c330e2a9cd5e54e365b4ecb567e33dee075604","tx":[{"txid":"7604930759225ab74868969da6b19b399d8b189bd9506f39e15019f8e08a1d44","hash":"80a7072798f45aa72450e348c719e169ce72a49995105b927971eae7b4c58732","version":2,"size":171,"vsize":144,"weight":576,"locktime":0,"vin":[{"ismweb":false,"coinbase":"03ed8e310101","txinwitness":["0000000000000000000000000000000000000000000000000000000000000000"],"sequence":4294967295}],"vout":[{"ismweb":false,"value":6.25002728,"n":0,"scriptPubKey":{"asm":"0
        7bd19b7434e4d9c93c534621c23c5eba8a35c187","hex":"00147bd19b7434e4d9c93c534621c23c5eba8a35c187","reqSigs":1,"type":"witness_v0_keyhash","addresses":["tltc1q00gekap5unvuj0zngcsuy0z7h29rtsv8d6xwsj"]}},{"ismweb":false,"value":0,"n":1,"scriptPubKey":{"asm":"OP_RETURN
        aa21a9ed30da500691dea788d56838d1733f3dcaeb7cfe3c28e7bb7aac6d41d0ad66886d","hex":"6a24aa21a9ed30da500691dea788d56838d1733f3dcaeb7cfe3c28e7bb7aac6d41d0ad66886d","type":"nulldata"}}],"hex":"020000000001010000000000000000000000000000000000000000000000000000000000000000ffffffff0603ed8e310101ffffffff02e8c84025000000001600147bd19b7434e4d9c93c534621c23c5eba8a35c1870000000000000000266a24aa21a9ed30da500691dea788d56838d1733f3dcaeb7cfe3c28e7bb7aac6d41d0ad66886d0120000000000000000000000000000000000000000000000000000000000000000000000000"},{"txid":"51d57f58f3ede964f0105e6a01795cc0df6f275ba4e5d408bc3ba7b57448f74b","hash":"a62d6fb8666b94654acbcf5a541c1848e712af9f96fed8197c0a7b482b3c9802","version":1,"size":370,"vsize":208,"weight":832,"locktime":0,"vin":[{"ismweb":false,"txid":"6b0f1847a67c6d4d40bd557324db7f0258a1d555d3176e666d2420730078c635","vout":0,"scriptSig":{"asm":"","hex":""},"txinwitness":["304402206debc508ebab4d24441cb85fd818c442eb3b803fd5af5fc2c4f5d8ddfae84b64022061b01a7345e8ae0e7558c446e5b9e80afd2f22250aa02f8f70f7c0af29f4ff0d01","035bc96345ad6257836f8c0267a067ac6bd3c9f7dd413f23330cc4f64248977e34"],"sequence":4294967295},{"ismweb":false,"txid":"6b0f1847a67c6d4d40bd557324db7f0258a1d555d3176e666d2420730078c635","vout":1,"scriptSig":{"asm":"","hex":""},"txinwitness":["3044022044c1e352b24403724f97b1d129bbc926a9b5b80fb743b3eeac6f119ee3ca4e5102204abcbc25491be3c6724720dd54cf6ec1e40831fb45fb554f809b92c57fc44fb701","02a1559f3b65652e92b529a5acc64cd9000a6eaa24531f61a7f928028fa3a87ac6"],"sequence":4294967295}],"vout":[{"ismweb":false,"value":6.69379664,"n":0,"scriptPubKey":{"asm":"0
        3efcd669a05d842fb1b05ec45b3b946b8f55774d","hex":"00143efcd669a05d842fb1b05ec45b3b946b8f55774d","reqSigs":1,"type":"witness_v0_keyhash","addresses":["tltc1q8m7dv6dqtkzzlvdstmz9kwu5dw842a6d7hd5fr"]}},{"ismweb":false,"value":0.00407272,"n":1,"scriptPubKey":{"asm":"0
        abd50c308b9563c615aeb0eb00752925ab2ff279","hex":"0014abd50c308b9563c615aeb0eb00752925ab2ff279","reqSigs":1,"type":"witness_v0_keyhash","addresses":["tltc1q402scvytj43uv9dwkr4sqaffyk4jlunet2cwyg"]}}],"hex":"0100000000010235c678007320246d666e17d355d5a158027fdb247355bd404d6d7ca647180f6b0000000000ffffffff35c678007320246d666e17d355d5a158027fdb247355bd404d6d7ca647180f6b0100000000ffffffff0250ece527000000001600143efcd669a05d842fb1b05ec45b3b946b8f55774de836060000000000160014abd50c308b9563c615aeb0eb00752925ab2ff2790247304402206debc508ebab4d24441cb85fd818c442eb3b803fd5af5fc2c4f5d8ddfae84b64022061b01a7345e8ae0e7558c446e5b9e80afd2f22250aa02f8f70f7c0af29f4ff0d0121035bc96345ad6257836f8c0267a067ac6bd3c9f7dd413f23330cc4f64248977e3402473044022044c1e352b24403724f97b1d129bbc926a9b5b80fb743b3eeac6f119ee3ca4e5102204abcbc25491be3c6724720dd54cf6ec1e40831fb45fb554f809b92c57fc44fb7012102a1559f3b65652e92b529a5acc64cd9000a6eaa24531f61a7f928028fa3a87ac600000000"},{"txid":"155b9bd93528a805975d549b8891c1de468cdcbf3c41b7cb22042cb6c58417fe","hash":"155b9bd93528a805975d549b8891c1de468cdcbf3c41b7cb22042cb6c58417fe","version":2,"size":97,"vsize":94,"weight":376,"locktime":0,"vin":[{"ismweb":false,"txid":"acee20a3c85c660599447e1f6c298f5009b47622303db4bc6cd3b79e4fea96d3","vout":0,"scriptSig":{"asm":"","hex":""},"sequence":4294967295}],"vout":[{"ismweb":false,"value":1791337.37993343,"n":0,"scriptPubKey":{"asm":"8
        a479f8d5e155979028166fc94cdbe0636ba721c75466713b5233f0bf08660d57","hex":"5820a479f8d5e155979028166fc94cdbe0636ba721c75466713b5233f0bf08660d57","type":"witness_mweb_hogaddr"}}],"hex":"02000000000801d396ea4f9eb7d36cbcb43d302276b409508f296c1f7e449905665cc8a320eeac0000000000ffffffff017f04d2d2eba20000225820a479f8d5e155979028166fc94cdbe0636ba721c75466713b5233f0bf08660d570000000000"}],"time":1714833888,"mediantime":1714833364,"nonce":44487,"bits":"1e044362","difficulty":0.000916254800568373,"chainwork":"00000000000000000000000000000000000000000000000000c3adb1cb5e171c","nTx":3,"mweb":{"hash":"a479f8d5e155979028166fc94cdbe0636ba721c75466713b5233f0bf08660d57","height":3247853,"kernel_offset":"9a966bcbe6fcf6b94d7428142a0027b004b1af6a28f2f1999e3d21a565ddb187","stealth_offset":"0000000000000000000000000000000000000000000000000000000000000000","num_kernels":0,"num_txos":4722,"kernel_root":"0000000000000000000000000000000000000000000000000000000000000000","output_root":"69f9f4774c9afd3dab444bbad6df6ae0dcb2c5d6051b5054d7b306a0d348f3c4","leaf_root":"2551128703060a6d3002845179551621ff1d77ce9055933276092f9e7ba97382","inputs":[],"outputs":[],"kernels":[]},"previousblockhash":"c6f01ca05384915909b49a16cfd4a5ea6ec986b1b376c0d31a2fbdc0967d5cb8","nextblockhash":"6d91b4b01d3e22c0ac7d7deefcba7427004b02a7184f1eb6f528590177302b06"},"error":null,"id":"curltest"}'
    headers:
      Access-Control-Allow-Origin:
      - '*'
      CF-Cache-Status:
      - DYNAMIC
      CF-RAY:
      - 887f3f370818dc57-LHR
      Connection:
      - keep-alive
      Content-Encoding:
      - gzip
      Content-Type:
      - application/json; charset=utf-8
      Date:
      - Wed, 22 May 2024 19:35:01 GMT
      Etag:
      - W/"15ea-OGS2/PUt10PcgLUlfrGcJ2iVcco"
      NEL:
      - '{"success_fraction":0,"report_to":"cf-nel","max_age":604800}'
      Report-To:
      - '{"endpoints":[{"url":"https:\/\/a.nel.cloudflare.com\/report\/v4?s=MugukFly0Ov8ab3bWaUgeowEKwDWGuHBlH0yksUdX1GRSijwWNTLFxRgCDs06HcNZo3iFsIwE8tN05bfbbqX3vc%2FA42ol08Xok6EIVgwmUH%2BMHeQwzA8yk9aMSmnaOc%3D"}],"group":"cf-nel","max_age":604800}'
      Server:
      - cloudflare
      Transfer-Encoding:
      - chunked
      Vary:
      - Accept-Encoding
      Via:
      - 1.1 google
      alt-svc:
      - h3=":443"; ma=86400
      content-security-policy:
      - 'default-src ''self'';base-uri ''self'';block-all-mixed-content;font-src ''self''
        https: data:;frame-ancestors ''self'';img-src ''self'' data:;object-src ''none'';script-src
        ''self'';script-src-attr ''none'';style-src ''self'' https: ''unsafe-inline'';upgrade-insecure-requests'
      expect-ct:
      - max-age=0
      referrer-policy:
      - no-referrer
      strict-transport-security:
      - max-age=15552000; includeSubDomains
      x-content-type-options:
      - nosniff
      x-dns-prefetch-control:
      - 'off'
      x-download-options:
      - noopen
      x-frame-options:
      - SAMEORIGIN
      x-lgroup:
      - v3:::4
      x-permitted-cross-domain-policies:
      - none
      x-ratelimit-persec:
      - '3'
      x-xss-protection:
      - '0'
    status:
      code: 200
      message: OK
- request:
    body: '{"method": "getblockcount", "params": [], "jsonrpc": "2.0", "id": "curltest"}'
    headers: {}
    method: POST
    uri: https://api.tatum.io/v3/blockchain/node/litecoin-core-testnet/t-66b98fa76a2e46001c79a063-6be61af199b34129a4797ed2/
  response:
    body:
      string: '{"result":3275881,"error":null,"id":"curltest"}'
    headers:
      Access-Control-Allow-Origin:
      - '*'
      CF-Cache-Status:
      - DYNAMIC
      CF-RAY:
      - 887f3f3e7f6c3865-LHR
      Connection:
      - keep-alive
      Content-Length:
      - '47'
      Content-Type:
      - application/json; charset=utf-8
      Date:
      - Wed, 22 May 2024 19:35:02 GMT
      Etag:
      - W/"2f-Mex06FydWLd57h5fnKbgHAWLb00"
      NEL:
      - '{"success_fraction":0,"report_to":"cf-nel","max_age":604800}'
      Report-To:
      - '{"endpoints":[{"url":"https:\/\/a.nel.cloudflare.com\/report\/v4?s=uwasWBwNEnrPXCg4D555jRJBEb%2BqLuuZZL8OgkLD3vT%2FzQJoBsTKh%2B01J%2F7ZcVYEvNeIeb6LtTWc%2Bkx65ljFdS24f17YyB0dC6%2FbszGdtLW0SydGaUeaXg63IwpmZEg%3D"}],"group":"cf-nel","max_age":604800}'
      Server:
      - cloudflare
      Via:
      - 1.1 google
      alt-svc:
      - h3=":443"; ma=86400
      content-security-policy:
      - 'default-src ''self'';base-uri ''self'';block-all-mixed-content;font-src ''self''
        https: data:;frame-ancestors ''self'';img-src ''self'' data:;object-src ''none'';script-src
        ''self'';script-src-attr ''none'';style-src ''self'' https: ''unsafe-inline'';upgrade-insecure-requests'
      expect-ct:
      - max-age=0
      referrer-policy:
      - no-referrer
      strict-transport-security:
      - max-age=15552000; includeSubDomains
      x-content-type-options:
      - nosniff
      x-dns-prefetch-control:
      - 'off'
      x-download-options:
      - noopen
      x-frame-options:
      - SAMEORIGIN
      x-lgroup:
      - v3:::4
      x-permitted-cross-domain-policies:
      - none
      x-ratelimit-persec:
      - '3'
      x-xss-protection:
      - '0'
    status:
      code: 200
      message: OK
- request:
    body: '{"method": "getblockhash", "params": [3247854], "jsonrpc": "2.0", "id":
      "curltest"}'
    headers: {}
    method: POST
    uri: https://api.tatum.io/v3/blockchain/node/litecoin-core-testnet/t-66b98fa76a2e46001c79a063-6be61af199b34129a4797ed2/
  response:
    body:
      string: '{"result":"6d91b4b01d3e22c0ac7d7deefcba7427004b02a7184f1eb6f528590177302b06","error":null,"id":"curltest"}'
    headers:
      Access-Control-Allow-Origin:
      - '*'
      CF-Cache-Status:
      - DYNAMIC
      CF-RAY:
      - 887f3f3f7bcc632b-LHR
      Connection:
      - keep-alive
      Content-Encoding:
      - gzip
      Content-Type:
      - application/json; charset=utf-8
      Date:
      - Wed, 22 May 2024 19:35:02 GMT
      Etag:
      - W/"6a-AlT1INyeQ1FXH50qhJDUOe3VEos"
      NEL:
      - '{"success_fraction":0,"report_to":"cf-nel","max_age":604800}'
      Report-To:
      - '{"endpoints":[{"url":"https:\/\/a.nel.cloudflare.com\/report\/v4?s=i8T1dTg0W6S2ClXFfkYj8nngF2mS3cge4nmA4E9UAPnffv2PfdgFG8AJfuYlBJI7p7xc6OAdFPhUi7DLxfprfmxjEI7Rp5QmUuPOnajQMJly5DqEL8Bvq2ep7ZrOzq0%3D"}],"group":"cf-nel","max_age":604800}'
      Server:
      - cloudflare
      Transfer-Encoding:
      - chunked
      Via:
      - 1.1 google
      alt-svc:
      - h3=":443"; ma=86400
      content-security-policy:
      - 'default-src ''self'';base-uri ''self'';block-all-mixed-content;font-src ''self''
        https: data:;frame-ancestors ''self'';img-src ''self'' data:;object-src ''none'';script-src
        ''self'';script-src-attr ''none'';style-src ''self'' https: ''unsafe-inline'';upgrade-insecure-requests'
      expect-ct:
      - max-age=0
      referrer-policy:
      - no-referrer
      strict-transport-security:
      - max-age=15552000; includeSubDomains
      x-content-type-options:
      - nosniff
      x-dns-prefetch-control:
      - 'off'
      x-download-options:
      - noopen
      x-frame-options:
      - SAMEORIGIN
      x-lgroup:
      - v3:::4
      x-permitted-cross-domain-policies:
      - none
      x-ratelimit-persec:
      - '3'
      x-xss-protection:
      - '0'
    status:
      code: 200
      message: OK
- request:
    body: '{"method": "getblock", "params": ["6d91b4b01d3e22c0ac7d7deefcba7427004b02a7184f1eb6f528590177302b06",
      2], "jsonrpc": "2.0", "id": "curltest"}'
    headers: {}
    method: POST
    uri: https://api.tatum.io/v3/blockchain/node/litecoin-core-testnet/t-66b98fa76a2e46001c79a063-6be61af199b34129a4797ed2/
  response:
    body:
      string: '{"result":{"hash":"6d91b4b01d3e22c0ac7d7deefcba7427004b02a7184f1eb6f528590177302b06","confirmations":28028,"strippedsize":435,"size":645,"weight":1776,"height":3247854,"version":536870912,"versionHex":"20000000","merkleroot":"9e036e586c8202e96cfbd92437e113ed23359a1e071cfc040dd3432e6fdce386","tx":[{"txid":"40d43cdee20338c0002597d00d52daadc66fb4e8a6af9a002c1da84ca7cfb170","hash":"ec1d51a86c4111648da61cb2a7755c46e999ce012d381eae0000fe393255ab8d","version":1,"size":296,"vsize":269,"weight":1076,"locktime":0,"vin":[{"ismweb":false,"coinbase":"03ee8e3104e94936660861803ced00000000482f6a61616a506f6f6ce29b8fefb88f2068747470733a2f2f6a61616a2e70616765732e64657620f09f918841736b20666f72206672656520744c54432c206f72206d696e652077697468206d652f","txinwitness":["0000000000000000000000000000000000000000000000000000000000000000"],"sequence":0}],"vout":[{"ismweb":false,"value":6.249375,"n":0,"scriptPubKey":{"asm":"0
        94a1914d5e14ba06b02bb9d2b0b672f2fd125415","hex":"001494a1914d5e14ba06b02bb9d2b0b672f2fd125415","reqSigs":1,"type":"witness_v0_keyhash","addresses":["tltc1qjjsezn27zjaqdvpth8ftpdnj7t73y4q4vja4dq"]}},{"ismweb":false,"value":0.000625,"n":1,"scriptPubKey":{"asm":"OP_DUP
        OP_HASH160 684a4a9d1c027eddb12029e40ccd86215360790a OP_EQUALVERIFY OP_CHECKSIG","hex":"76a914684a4a9d1c027eddb12029e40ccd86215360790a88ac","reqSigs":1,"type":"pubkeyhash","addresses":["mq2PZs9p5ZNLbu23KLKb1tdQt1mrBJM7CX"]}},{"ismweb":false,"value":0,"n":2,"scriptPubKey":{"asm":"OP_RETURN
        aa21a9ede746e1e45c418a43d974963c15c7d4ecd9e02232cf06849f9d091b841f001746","hex":"6a24aa21a9ede746e1e45c418a43d974963c15c7d4ecd9e02232cf06849f9d091b841f001746","type":"nulldata"}}],"hex":"010000000001010000000000000000000000000000000000000000000000000000000000000000ffffffff6103ee8e3104e94936660861803ced00000000482f6a61616a506f6f6ce29b8fefb88f2068747470733a2f2f6a61616a2e70616765732e64657620f09f918841736b20666f72206672656520744c54432c206f72206d696e652077697468206d652f00000000031cca3f250000000016001494a1914d5e14ba06b02bb9d2b0b672f2fd12541524f40000000000001976a914684a4a9d1c027eddb12029e40ccd86215360790a88ac0000000000000000266a24aa21a9ede746e1e45c418a43d974963c15c7d4ecd9e02232cf06849f9d091b841f0017460120000000000000000000000000000000000000000000000000000000000000000000000000"},{"txid":"992b887a10aa924430e905174535fd92733136b76d39e835c109e3ff2719bd69","hash":"992b887a10aa924430e905174535fd92733136b76d39e835c109e3ff2719bd69","version":2,"size":97,"vsize":94,"weight":376,"locktime":0,"vin":[{"ismweb":false,"txid":"155b9bd93528a805975d549b8891c1de468cdcbf3c41b7cb22042cb6c58417fe","vout":0,"scriptSig":{"asm":"","hex":""},"sequence":4294967295}],"vout":[{"ismweb":false,"value":1791337.37993343,"n":0,"scriptPubKey":{"asm":"8
        086024bcc947aadc5053e0a51bcaabf1f7b4c264904fb72fa3f05c47dfb7575e","hex":"5820086024bcc947aadc5053e0a51bcaabf1f7b4c264904fb72fa3f05c47dfb7575e","type":"witness_mweb_hogaddr"}}],"hex":"02000000000801fe1784c5b62c0422cbb7413cbfdc8c46dec191889b545d9705a82835d99b5b150000000000ffffffff017f04d2d2eba20000225820086024bcc947aadc5053e0a51bcaabf1f7b4c264904fb72fa3f05c47dfb7575e0000000000"}],"time":1714833897,"mediantime":1714833369,"nonce":945226240,"bits":"1e044362","difficulty":0.000916254800568373,"chainwork":"00000000000000000000000000000000000000000000000000c3adb1cb9a238c","nTx":2,"mweb":{"hash":"086024bcc947aadc5053e0a51bcaabf1f7b4c264904fb72fa3f05c47dfb7575e","height":3247854,"kernel_offset":"9a966bcbe6fcf6b94d7428142a0027b004b1af6a28f2f1999e3d21a565ddb187","stealth_offset":"0000000000000000000000000000000000000000000000000000000000000000","num_kernels":0,"num_txos":4722,"kernel_root":"0000000000000000000000000000000000000000000000000000000000000000","output_root":"69f9f4774c9afd3dab444bbad6df6ae0dcb2c5d6051b5054d7b306a0d348f3c4","leaf_root":"2551128703060a6d3002845179551621ff1d77ce9055933276092f9e7ba97382","inputs":[],"outputs":[],"kernels":[]},"previousblockhash":"b76c047e07af580555082792b2007dc969a6036391cd5aba915ec3c73755b80b","nextblockhash":"2466170a397703ccbeb3a3402b201deafd47503a08b3538adafc42308260a4e9"},"error":null,"id":"curltest"}'
    headers:
      Access-Control-Allow-Origin:
      - '*'
      CF-Cache-Status:
      - DYNAMIC
      CF-RAY:
      - 887f3f405a7994b1-LHR
      Connection:
      - keep-alive
      Content-Encoding:
      - gzip
      Content-Type:
      - application/json; charset=utf-8
      Date:
      - Wed, 22 May 2024 19:35:02 GMT
      Etag:
      - W/"fd8-L3m7sczC/tWMcqT7Gz0MygeT6hk"
      NEL:
      - '{"success_fraction":0,"report_to":"cf-nel","max_age":604800}'
      Report-To:
      - '{"endpoints":[{"url":"https:\/\/a.nel.cloudflare.com\/report\/v4?s=rYP3Fbu3el%2BFfnIoI2VhZ%2FKBQyVarsh4GpA9jQBZATUgLZmmmBCviTX2uw4tderAgO%2Bg2rmacRqF17jZsNruVPq%2BBZ%2BWTwaImQ1HiKblZHP%2FAGBtggF9RHLglwwQcNw%3D"}],"group":"cf-nel","max_age":604800}'
      Server:
      - cloudflare
      Transfer-Encoding:
      - chunked
      Vary:
      - Accept-Encoding
      Via:
      - 1.1 google
      alt-svc:
      - h3=":443"; ma=86400
      content-security-policy:
      - 'default-src ''self'';base-uri ''self'';block-all-mixed-content;font-src ''self''
        https: data:;frame-ancestors ''self'';img-src ''self'' data:;object-src ''none'';script-src
        ''self'';script-src-attr ''none'';style-src ''self'' https: ''unsafe-inline'';upgrade-insecure-requests'
      expect-ct:
      - max-age=0
      referrer-policy:
      - no-referrer
      strict-transport-security:
      - max-age=15552000; includeSubDomains
      x-content-type-options:
      - nosniff
      x-dns-prefetch-control:
      - 'off'
      x-download-options:
      - noopen
      x-frame-options:
      - SAMEORIGIN
      x-lgroup:
      - v3:::4
      x-permitted-cross-domain-policies:
      - none
      x-ratelimit-persec:
      - '3'
      x-xss-protection:
      - '0'
    status:
      code: 200
      message: OK
- request:
    body: '{"method": "getblockcount", "params": [], "jsonrpc": "2.0", "id": "curltest"}'
    headers: {}
    method: POST
    uri: https://api.tatum.io/v3/blockchain/node/litecoin-core-testnet/t-66b98fa76a2e46001c79a063-6be61af199b34129a4797ed2/
  response:
    body:
      string: '{"result":3275882,"error":null,"id":"curltest"}'
    headers:
      Access-Control-Allow-Origin:
      - '*'
      CF-Cache-Status:
      - DYNAMIC
      CF-RAY:
      - 887f4802ee7f732a-LHR
      Connection:
      - keep-alive
      Content-Length:
      - '47'
      Content-Type:
      - application/json; charset=utf-8
      Date:
      - Wed, 22 May 2024 19:41:01 GMT
      Etag:
      - W/"2f-WtEmcbTmAxiuQk/j+obrNT0AmRg"
      NEL:
      - '{"success_fraction":0,"report_to":"cf-nel","max_age":604800}'
      Report-To:
      - '{"endpoints":[{"url":"https:\/\/a.nel.cloudflare.com\/report\/v4?s=9l%2F8HsBt69aBEhwjU6R0KozvcpZFMH84sZz0Cjvxc1slbtIi6DqCG92lON5O0V7Y98FuoZ7%2BykQraEriNuknHZk8wQInrZtdXewc0rckwwO5Dw8ILMKy1Hr1h1KPfJA%3D"}],"group":"cf-nel","max_age":604800}'
      Server:
      - cloudflare
      Via:
      - 1.1 google
      alt-svc:
      - h3=":443"; ma=86400
      content-security-policy:
      - 'default-src ''self'';base-uri ''self'';block-all-mixed-content;font-src ''self''
        https: data:;frame-ancestors ''self'';img-src ''self'' data:;object-src ''none'';script-src
        ''self'';script-src-attr ''none'';style-src ''self'' https: ''unsafe-inline'';upgrade-insecure-requests'
      expect-ct:
      - max-age=0
      referrer-policy:
      - no-referrer
      strict-transport-security:
      - max-age=15552000; includeSubDomains
      x-content-type-options:
      - nosniff
      x-dns-prefetch-control:
      - 'off'
      x-download-options:
      - noopen
      x-frame-options:
      - SAMEORIGIN
      x-lgroup:
      - v3:::4
      x-permitted-cross-domain-policies:
      - none
      x-ratelimit-persec:
      - '3'
      x-xss-protection:
      - '0'
    status:
      code: 200
      message: OK
- request:
    body: '{"method": "getblockhash", "params": [3247855], "jsonrpc": "2.0", "id":
      "curltest"}'
    headers: {}
    method: POST
    uri: https://api.tatum.io/v3/blockchain/node/litecoin-core-testnet/t-66b98fa76a2e46001c79a063-6be61af199b34129a4797ed2/
  response:
    body:
      string: '{"result":"2466170a397703ccbeb3a3402b201deafd47503a08b3538adafc42308260a4e9","error":null,"id":"curltest"}'
    headers:
      Access-Control-Allow-Origin:
      - '*'
      CF-Cache-Status:
      - DYNAMIC
      CF-RAY:
      - 887f48039a8a52a6-LHR
      Connection:
      - keep-alive
      Content-Encoding:
      - gzip
      Content-Type:
      - application/json; charset=utf-8
      Date:
      - Wed, 22 May 2024 19:41:01 GMT
      Etag:
      - W/"6a-NIsU6VTx+O5+ZiMXacgz3yRGZ4w"
      NEL:
      - '{"success_fraction":0,"report_to":"cf-nel","max_age":604800}'
      Report-To:
      - '{"endpoints":[{"url":"https:\/\/a.nel.cloudflare.com\/report\/v4?s=yFLKFTQunYOoUHPrWXL48Bj8YZ%2BjvuvhFrUOiLfXwm39NVQFgNC9zz4NHZQoamAtsJQK6jFY6F%2BgD5EHSP5gvnYppD3VJpT3PgBdABSIlPsHqL2HSliSuWmrJZVh0BA%3D"}],"group":"cf-nel","max_age":604800}'
      Server:
      - cloudflare
      Transfer-Encoding:
      - chunked
      Via:
      - 1.1 google
      alt-svc:
      - h3=":443"; ma=86400
      content-security-policy:
      - 'default-src ''self'';base-uri ''self'';block-all-mixed-content;font-src ''self''
        https: data:;frame-ancestors ''self'';img-src ''self'' data:;object-src ''none'';script-src
        ''self'';script-src-attr ''none'';style-src ''self'' https: ''unsafe-inline'';upgrade-insecure-requests'
      expect-ct:
      - max-age=0
      referrer-policy:
      - no-referrer
      strict-transport-security:
      - max-age=15552000; includeSubDomains
      x-content-type-options:
      - nosniff
      x-dns-prefetch-control:
      - 'off'
      x-download-options:
      - noopen
      x-frame-options:
      - SAMEORIGIN
      x-lgroup:
      - v3:::4
      x-permitted-cross-domain-policies:
      - none
      x-ratelimit-persec:
      - '3'
      x-xss-protection:
      - '0'
    status:
      code: 200
      message: OK
- request:
    body: '{"method": "getblock", "params": ["2466170a397703ccbeb3a3402b201deafd47503a08b3538adafc42308260a4e9",
      2], "jsonrpc": "2.0", "id": "curltest"}'
    headers: {}
    method: POST
    uri: https://api.tatum.io/v3/blockchain/node/litecoin-core-testnet/t-66b98fa76a2e46001c79a063-6be61af199b34129a4797ed2/
  response:
    body:
      string: '{"result":{"hash":"2466170a397703ccbeb3a3402b201deafd47503a08b3538adafc42308260a4e9","confirmations":28028,"strippedsize":435,"size":645,"weight":1776,"height":3247855,"version":536870912,"versionHex":"20000000","merkleroot":"ea7d884bbc471d6c6ca1373c718fa8e24c0a57d280e5a4c2b633b1743d1712cd","tx":[{"txid":"cc2f6dcf37ee8cf019145c2a3eaabf70f14a42dd9aa5f31ed1baa549716fe7b9","hash":"26cd1fbff30b0fadb066f00de9f86ff29f3a54360dbfc528d9b02f489f1704b4","version":1,"size":296,"vsize":269,"weight":1076,"locktime":0,"vin":[{"ismweb":false,"coinbase":"03ef8e3104ff49366608bf4bc2d500000000482f6a61616a506f6f6ce29b8fefb88f2068747470733a2f2f6a61616a2e70616765732e64657620f09f918841736b20666f72206672656520744c54432c206f72206d696e652077697468206d652f","txinwitness":["0000000000000000000000000000000000000000000000000000000000000000"],"sequence":0}],"vout":[{"ismweb":false,"value":6.249375,"n":0,"scriptPubKey":{"asm":"0
        94a1914d5e14ba06b02bb9d2b0b672f2fd125415","hex":"001494a1914d5e14ba06b02bb9d2b0b672f2fd125415","reqSigs":1,"type":"witness_v0_keyhash","addresses":["tltc1qjjsezn27zjaqdvpth8ftpdnj7t73y4q4vja4dq"]}},{"ismweb":false,"value":0.000625,"n":1,"scriptPubKey":{"asm":"OP_DUP
        OP_HASH160 684a4a9d1c027eddb12029e40ccd86215360790a OP_EQUALVERIFY OP_CHECKSIG","hex":"76a914684a4a9d1c027eddb12029e40ccd86215360790a88ac","reqSigs":1,"type":"pubkeyhash","addresses":["mq2PZs9p5ZNLbu23KLKb1tdQt1mrBJM7CX"]}},{"ismweb":false,"value":0,"n":2,"scriptPubKey":{"asm":"OP_RETURN
        aa21a9edb2b3b4be9f62e0f20409d7bddecca7547ef5254dc0c6978a3985ffb60215ad8e","hex":"6a24aa21a9edb2b3b4be9f62e0f20409d7bddecca7547ef5254dc0c6978a3985ffb60215ad8e","type":"nulldata"}}],"hex":"010000000001010000000000000000000000000000000000000000000000000000000000000000ffffffff6103ef8e3104ff49366608bf4bc2d500000000482f6a61616a506f6f6ce29b8fefb88f2068747470733a2f2f6a61616a2e70616765732e64657620f09f918841736b20666f72206672656520744c54432c206f72206d696e652077697468206d652f00000000031cca3f250000000016001494a1914d5e14ba06b02bb9d2b0b672f2fd12541524f40000000000001976a914684a4a9d1c027eddb12029e40ccd86215360790a88ac0000000000000000266a24aa21a9edb2b3b4be9f62e0f20409d7bddecca7547ef5254dc0c6978a3985ffb60215ad8e0120000000000000000000000000000000000000000000000000000000000000000000000000"},{"txid":"39aea883ba364db920f2f8e36e326491749b2a576306ed253223860efcda1e0c","hash":"39aea883ba364db920f2f8e36e326491749b2a576306ed253223860efcda1e0c","version":2,"size":97,"vsize":94,"weight":376,"locktime":0,"vin":[{"ismweb":false,"txid":"992b887a10aa924430e905174535fd92733136b76d39e835c109e3ff2719bd69","vout":0,"scriptSig":{"asm":"","hex":""},"sequence":4294967295}],"vout":[{"ismweb":false,"value":1791337.37993343,"n":0,"scriptPubKey":{"asm":"8
        fc6a93f9d465d93d5f82974181c905e1ddf4c4705439109f7f38403ee8f771bb","hex":"5820fc6a93f9d465d93d5f82974181c905e1ddf4c4705439109f7f38403ee8f771bb","type":"witness_mweb_hogaddr"}}],"hex":"0200000000080169bd1927ffe309c135e8396db736317392fd35451705e9304492aa107a882b990000000000ffffffff017f04d2d2eba20000225820fc6a93f9d465d93d5f82974181c905e1ddf4c4705439109f7f38403ee8f771bb0000000000"}],"time":1714833919,"mediantime":1714833495,"nonce":4096197120,"bits":"1e044362","difficulty":0.000916254800568373,"chainwork":"00000000000000000000000000000000000000000000000000c3adb1cbd62ffc","nTx":2,"mweb":{"hash":"fc6a93f9d465d93d5f82974181c905e1ddf4c4705439109f7f38403ee8f771bb","height":3247855,"kernel_offset":"9a966bcbe6fcf6b94d7428142a0027b004b1af6a28f2f1999e3d21a565ddb187","stealth_offset":"0000000000000000000000000000000000000000000000000000000000000000","num_kernels":0,"num_txos":4722,"kernel_root":"0000000000000000000000000000000000000000000000000000000000000000","output_root":"69f9f4774c9afd3dab444bbad6df6ae0dcb2c5d6051b5054d7b306a0d348f3c4","leaf_root":"2551128703060a6d3002845179551621ff1d77ce9055933276092f9e7ba97382","inputs":[],"outputs":[],"kernels":[]},"previousblockhash":"6d91b4b01d3e22c0ac7d7deefcba7427004b02a7184f1eb6f528590177302b06","nextblockhash":"5105e7d547d990af00aeb27bf86187c2ff0a0274899e14723745e1403a931bc1"},"error":null,"id":"curltest"}'
    headers:
      Access-Control-Allow-Origin:
      - '*'
      CF-Cache-Status:
      - DYNAMIC
      CF-RAY:
      - 887f4804398e7755-LHR
      Connection:
      - keep-alive
      Content-Encoding:
      - gzip
      Content-Type:
      - application/json; charset=utf-8
      Date:
      - Wed, 22 May 2024 19:41:01 GMT
      Etag:
      - W/"fd9-rep8mOK12o4vPxzg0POAXkZ0nqw"
      NEL:
      - '{"success_fraction":0,"report_to":"cf-nel","max_age":604800}'
      Report-To:
      - '{"endpoints":[{"url":"https:\/\/a.nel.cloudflare.com\/report\/v4?s=byHQLow2dNJrMpwPeE6eWOicupskebvn%2FTqr5Nk4FeHTSXv%2BXrZmTiJ6L9IMv41pmt28ckURvf3I8cghQV2d7xE%2BhRiuPYE7deN5lVgtImex1j3bLRmGbOmICW1EBJE%3D"}],"group":"cf-nel","max_age":604800}'
      Server:
      - cloudflare
      Transfer-Encoding:
      - chunked
      Vary:
      - Accept-Encoding
      Via:
      - 1.1 google
      alt-svc:
      - h3=":443"; ma=86400
      content-security-policy:
      - 'default-src ''self'';base-uri ''self'';block-all-mixed-content;font-src ''self''
        https: data:;frame-ancestors ''self'';img-src ''self'' data:;object-src ''none'';script-src
        ''self'';script-src-attr ''none'';style-src ''self'' https: ''unsafe-inline'';upgrade-insecure-requests'
      expect-ct:
      - max-age=0
      referrer-policy:
      - no-referrer
      strict-transport-security:
      - max-age=15552000; includeSubDomains
      x-content-type-options:
      - nosniff
      x-dns-prefetch-control:
      - 'off'
      x-download-options:
      - noopen
      x-frame-options:
      - SAMEORIGIN
      x-lgroup:
      - v3:::4
      x-permitted-cross-domain-policies:
      - none
      x-ratelimit-persec:
      - '3'
      x-xss-protection:
      - '0'
    status:
      code: 200
      message: OK
version: 1
